:02000000992F36
:020008000900ED
:100F3200FE30A60006302607D3278E108E11FF3012
:100F4200EC27FF30EC27FF30EC27FF30EC27013095
:100F5200AB27A02FF527BE27090DBE27090DBE27F7
:100F6200090DBE27090DBE27090DBE27090DBE2793
:100F7200090DBE278E158E110800891FC727891BF0
:100F8200C32708000E158E148E1008000E118E1441
:100F92008E10080042011110400108004201111494
:100FA2004001080040018C018D018E014001980131
:100FB20040019201D13094007E010130CE00D03048
:100FC200CF00410110309F0042019601C13011143F
:100FD200910040010800A200F930A3000000A30B19
:100FE200EF2FA20BED2F080082077E340A34B634AD
:0E0FF2009E34CA34DC34FC340E34FE34DE345B
:020000040001F9
:0A000E00EC1FFF3F9F3FFF3FFF3F45
:00000001FF
